:1000000008308A00002800000A108A100A118207AE
:1000100028340C34013406340A108A100A1182077D
:10002000313432343334343435343634373438348C
:1000300039342A34303423340A108A100A118207E2
:10004000533465346C3465346334633469346F34E9
:100050006E3420344D346F3464346F3400340A10FD
:100060008A100A1182074D346F3464346F3420349F
:100070004D346F3474346F347234653473340034F7
:100080000A108A100A11820745346C342034313446
:1000900000340A108A100A1182074D346F34643418
:1000A0006F3420344D3465346434693464346F34CF
:1000B000723400340A108A100A11820744346934F9
:1000C0007334743461346E346334693461343D3470
:1000D0002534663400340A108A100A1182074F341E
:1000E000753474346F346634523461346E346B3426
:1000F00000344B3084008313000803198D2801302D
:10010000F800F701F70B8228F80B81284A30F70036
:10011000F70B88288B28800B7F280034520EF0398B
:10012000F7000F30060577048600000006149828B3
:10013000061000348610F0308316860083120615F0
:100140000000061400000608060E0F39D200061043
:100150000000061400000608060E0F39D100061034
:100160000030831686008312520EF700F030F70538
:1001700077085104F8007808D100D11B9B284F1C48
:1001800086104F1886140000061100000610500E4D
:10019000D1000F30D1055108D2008E2050080F3900
:1001A000D100D2008E2000340030831686008312E6
:1001B0008610061106100F30CB0079200130BC00EC
:1001C0003C08033C031CEC280330D2008E20053091
:1001D000CB007920BC0AE0280230D2008E20BC017E
:1001E0003C08033C031CFD283C080420BD00CF0153
:1001F0003D08D0009A20BC0AF0288A150A1212285D
:100200008A150A1215284C0B062909294030CD0001
:100210000A29CD0101304B02CD074D088038CE00B0
:10022000CF014E08D0009A2000344A080C3A031936
:100230002029063A03192829023A03192E293329BD
:10024000CF010130D0009A200230CB00792039292B
:100250000130CB000230CC0003213929CF0110300E
:10026000D0009A2039290130CF004A08D0009A20C6
:1002700039290034F701F8013E0803103F18F70749
:10028000F70CF80CBF18F707F70CF80C3F19F70735
:10029000F70CF80CBF19F707F70CF80C3F1AF70723
:1002A000F70CF80CBF1AF707F70CF80C3F1BF70711
:1002B000F70CF80CBF1BF707F70CF80C8A110A12A1
:1002C000B329BC01A00A2008213C0318C029230837
:1002D00003197129013A03197729033A03197D2972
:1002E0008329DE3083168600831286008329BE3080
:1002F000831686008312860083297E30831686004B
:10030000831286008329211C8F2906081E391E3C72
:10031000031D8E2921102208BC00A201BF29060856
:100320001E391E3C0319BA2906080239031D9A29F1
:10033000BD01AE2906080439031DA1290130BD0005
:10034000AE2906080839031DA8290230BD00AE29D0
:1003500006081039031DAE290330BD003D08BE005C
:100360000330BF003A29230878070C20F800A200C8
:100370002114BF29A30A2308033C0319A301A001E8
:10038000FE308316860083123C08F8008A150A1294
:1003900052288E30F7003E08F8003D08F900FA01B7
:1003A000F808031DDD297908F800F9010830F70283
:1003B000F808031DDD29F701E5290310F81BE429DE
:1003C000F90DF80DF703DD29F81300344A08031975
:1003D000562AD2004E080319562AD2070318F729C5
:1003E0007F30D202031C562A0319562AFB2981307A
:1003F000D2070318562A5208F700F801F901FA014A
:100400004B08D600D6174C08D5004D08D40018303C
:10041000D200D301541C242A5108FA07031C162ABF
:10042000F90A031D162AF80A0319D3175008F90709
:10043000031C1D2AF80A0319D3174F08CC00CC1748
:100440004C08F8070318D317D30DF80CF90CFA0C65
:10045000D60CD50CD40C0310D20B092A0130F707A7
:100460000318562AF81B3B2AD60DFA0DF90DF80D84
:10047000F7030319562AD61F4C2AFA0A031D4C2AE1
:10048000F90A031D4C2AF80A031D4C2AF80CF90C32
:10049000FA0CF70A0319562A4B08D3004F08D30663
:1004A000D31F542AF8175A2AF8135A2AF701F801C9
:1004B000F901FA01003444080319202BD000480840
:1004C0000319202BD002031C6A2A7F30D00703189F
:1004D000202B702A8130D002031C202B0319202BE3
:1004E0005008F700F801F901FA01CF014508CE00E4
:1004F000CE174608CD004708CC001930D0004B0875
:10050000CC020318932A0130CD020318932ACE029D
:100510000318932ACF020318932ACF0ACE0ACD0AD2
:100520004B08CC07C52A4A08CD020318AE2A013071
:10053000CE020318AE2ACF020318AE2ACF0ACE0A83
:100540004A08CD074B08CC07031CC52ACD0A031D5A
:10055000C52ACE0A031DC52ACF0AC52A49088038F4
:10056000CE020318C42A0130CF020318C42ACF0ACE
:1005700049088038CE074A08CD07031CA22ACE0AB4
:10058000031DA22ACF0AA22A7A14D00BC82AD32A82
:100590000310CC0DCD0DCE0DCF0D0310FA0DF90DBE
:1005A000F80DD10D7F2A511CDB2A0310F80CF90C31
:1005B000FA0CD10CDE2AF7030319202BD11B072BD1
:1005C0000310CC0DCD0DCE0DCF0D4B08CC02031872
:1005D000F32A0130CD020318F32ACE020318F32ABE
:1005E000CF02031C162B4A08CD020318FE2A013045
:1005F000CE020318FE2ACF02031C162B49088038AE
:10060000CE020318072B0130CF02031C162BFA0A67
:10061000031D162BF90A031D162BF80A031D162BB2
:10062000F70A0319202BF80CF90CFA0C4508D00036
:100630004908D006D01F1E2BF817242BF813242BA3
:10064000F701F801F901FA0100343E08C50042083B
:10065000C506C51F302B03110310BE1B0314632BEB
:100660003E08C5004108C6003D08C60203193E2BDE
:10067000C51F632B0308013A8300632B4208C600A1
:100680003E08C60203194A2BC51F632B0308013A13
:100690008300632B4308C6003F08C6020319562B8C
:1006A000C51F632B0308013A8300632B4408C6006F
:1006B0004008C6020319622BC51F632B0308013AC9
:1006C0008300632B0310003480308318CD06D201E1
:1006D000D3014908D1004D08D10648080319542C0C
:1006E000D000F7004C0803195D2CD0020319F92B38
:1006F000031CB72B4D08D600D6174E08D5004F085F
:10070000D400D3010310D60CD50CD40CD30CD00BD1
:10071000812BD11F8E2B5214712C52105010521657
:100720004B3084008313862C5212D11BA12B501CFA
:10073000AC2BD60CD50CD40CD30CF70A03196C2CAB
:10074000AC2BD61BAF2B0310D30DD40DD50DD60D6E
:10075000F70303196C2CA12B5217192C52134908BB
:10076000D100D11FB52BD617652CD613652C4C089C
:10077000D000F7004808D0024908D600D6174A082A
:10078000D5004B08D400D3010310D60CD50CD40CE3
:10079000D30CD00BC32BD11FD02BD214712CD21061
:1007A0005010D2164F3084008313862CD212D11BE6
:1007B000E32B501CEE2BD60CD50CD40CD30CF70A23
:1007C00003196C2CEE2BD61BF12B0310D30DD40D7B
:1007D000D50DD60DF70303196C2CE32BD217192C6A
:1007E000D2134D08D100D11FF72BD617652CD61385
:1007F000652C4D08D600D6174E08D5004F08D400FA
:10080000D11F062CD6135215712C5211D301501042
:100810004B3084008313862CD11B2F2C4908D10028
:10082000501C192CD60CD50CD40CD30CF70A031978
:100830006C2CD31F2A2CD40A031D2A2CD50A031D85
:100840002A2CD60A031D2A2CD60CD50CD40CF70A58
:1008500003196C2C521BAE2BD21BF02B4E2C80306C
:10086000D606D61F372C712C4D08D100442C4908D0
:10087000D100D608031D442CD508031D442CD408F0
:10088000031D442CF701652CD61B4E2C0310D30DF1
:10089000D40DD50DD60DF70B442C6C2CD11F522C3A
:1008A000D617652CD613652C4C08F7004D08D600DA
:1008B0004E08D5004F08D400652C4808F7004908B9
:1008C000D6004A08D5004B08D4005608F800550851
:1008D000F9005408FA00A42CF701F801F901FA0113
:1008E000A42CD301D409D509D609D309D30A031DF1
:1008F0007F2CD40A031D7F2CD50A0319D60A52185F
:100900008D2BD218CF2B5219052C342C0008D4076C
:10091000031C902CD50A031D902CD60A03195014E1
:1009200084030008D507031C982CD60A0319501419
:1009300084030008801F803AD60703185014521A07
:10094000942BD21AD62B0C2C00344A08B63CCA0081
:10095000FA014B08CE00CB170310CB0CCC0CCD0CFE
:10096000FA0CF90CF80CF70CCA0BAC2CCE1FC32CEC
:10097000F709F809F909FA09F70A0319F80A031936
:10098000F90A0319FA0A8A110A12302DF701F8013F
:10099000F901FA01D201D301D401D5015108500463
:1009A0004F044E040319042D2030D6000310CA0D45
:1009B000CB0DCC0DCD0DD20DD30DD40DD50D5108D1
:1009C0005502031DED2C50085402031DED2C4F0859
:1009D0005302031DED2C4E085202031CFE2C4E0840
:1009E000D2024F08031C4F0FD3025008031C500FB4
:1009F000D4025108031C510FD5020314F70DF80D52
:100A0000F90DFA0DD60BD62C523084008313003426
:100A10000408C2004108C4000319272D4008CD0076
:100A20003F08CC003E08CB003D08CA00D101D001F0
:100A30002030CF008230CE00E6217A08C00079084D
:100A4000BF007808BE007708BD00C40B0E2D40081B
:100A5000CD003F08CC003E08CB003D08CA00A52CC5
:100A60007A08C0007908BF007808BE007708BD008A
:100A7000C01F472DC203C216BD09BE09BF09C00968
:100A8000BD0A0319BE0A0319BF0A0319C00A3B3085
:100A9000C9009A30C800CA30C700C6010A30C40075
:100AA00041080319C20A4008CD003F08CC003E08A7
:100AB000CB003D08CA004908D1004808D0004708CB
:100AC000CF004608CE00C6240008BD00840A0008F6
:100AD000BE00840A0008BF00840A0008C000FD3080
:100AE0008407F708031D872D410A44020319872D47
:100AF00042080319892D0F3944020319812D031867
:100B0000B92DC21BB92D421B892D2030B52D2030A7
:100B1000C205C21E972DC2124108031DC2037708E9
:100B2000C2002D30CA0015214208F700C201410859
:100B30004402031DA52D7708C2002E30CA001521DE
:100B40004208F7002030C20500303030C21EB52DFB
:100B5000C2124108031DC2037708C2002D30CA002B
:100B600015214208F700C2013030F7077708CA00A4
:100B700015214908CD004808CC004708CB0046089D
:100B8000CA00D101D001CF010A30CE00C6247A08B4
:100B9000C9007908C8007808C7007708C600C40BE8
:040BA000532D00349D
:10100000840183131F30830583161F149F141F153B
:101010009F118312A0012110A201A301FF30A4009F
:101020008A11D4288A158A1100298A15A410240847
:1010300083168700831287100C309D00241124082A
:1010400083168700831207110C3097000030F800D8
:1010500006389200F930831692001F109F101F115E
:101060009F1183121F179F1783169F1783121F1438
:101070000030F8001F08C73978049F0083168113D9
:101080008312BC013C088A111C208A15BC0AF70097
:10109000CA008A1115218A150E303C02031D422810
:1010A0008A1161298A157808A50030302502BE0111
:1010B000BD008A11C9218A157A08B3007908B200E7
:1010C0007808B1007708B000A508031950280C3043
:1010D000CA008A1115218A1525082A3A031974288D
:1010E0001B3A03198A28A0280130CB00CC008A11B2
:1010F00003218A15BC013C088A112F208A15BC0ADD
:10110000F700CA008A1115218A150C303C02031D14
:101110007B28B6280130CB00CC008A1103218A1528
:10112000BC013C088A1140208A15BC0AF700CA009D
:101130008A1115218A1504303C02031D9128B62816
:101140000130CB00CC008A1103218A15BC013C0878
:101150008A1149208A15BC0AF700CA008A11152194
:101160008A150C303C02031DA728B6280630F7006C
:10117000F70BB82800001F151F19BC2883161E087E
:101180008312A6001E08A7002708BE002608BD007F
:101190008A11C9218A15CD01CC012030CB008130C4
:1011A000CA007A08D1007908D0007808CF00770803
:1011B000CE008A11E6218A157708BC007808BD00A8
:1011C0007908BE007A08BF00C7003E08C6003D0887
:1011D000C5003C08C400CB01CA01C9018930C80060
:1011E0008A115B228A157A08AB007908AA00780870
:1011F000A9007708A8002B08C0002A08BF0029080A
:10120000BE002808BD006630C400C3000630C2001E
:101210008030C1008A1125238A1503181329031968
:101220001329003014290130BE01BD008A11C921E3
:101230008A157A08C0007908BF007808BE007708D0
:10124000BD009A30C4009930C3001930C20080300C
:10125000C1008A1125238A1503183029031DF0299E
:1012600083142B08CB002A08CA002908C9002808C3
:10127000C8006630CF00CE000630CD008030CC00F4
:101280008A1164238A157A08B7007908B6007808AD
:10129000B5007708B400CD01CC01CB018030CA0085
:1012A0003708D1003608D0003508CF003408CE000A
:1012B0008A11E6218A157708BC007808BD007908F4
:1012C000BE007A08BF00C7003E08C6003D08C50042
:1012D0003C08C400CB01CA012030C9008430C800DA
:1012E0008A115B228A157A08AF007908AE00780867
:1012F000AD007708AC0083100A30CB00D730CA00AD
:101300002330C9007B30C8002F08CF002E08CE0044
:101310002D08CD002C08CC008A1164238A157A0888
:10132000B3007908B2007808B1007708B000C701AF
:10133000C601C5017F30C4003308CB003208CA00A3
:101340003108C9003008C8008A115B228A15770865
:10135000BC007808BD007908BE007A08BF0083147D
:101360003F08CB003E08CA003D08C9003C08C80041
:101370003D30CF000A30CE005730CD007D30CC005C
:101380008A1164238A157A08BB007908BA007808A4
:10139000B9007708B8000130CB000230CC008A11C8
:1013A00003218A15BC013C088A115A208A15BC0AFF
:1013B000F700CA008A1115218A150A303C02031D64
:1013C000D329893084003B08C0003A08BF0039089F
:1013D000BE003808BD000230C1008A1108258A15F8
:1013E0002B08C0002A08BF002908BE002808BD003D
:1013F0003330C400C300C2007F30C1008A112523EE
:101400008A150318072A0319072A0030082A013011
:10141000BE01BD008A11C9218A157A08C000790869
:10142000BF007808BE007708BD006630C400C30066
:101430000630C2008030C1008A1125238A15031CA2
:10144000D62A9630CD004330CC000B30CB0079301B
:10145000CA002B08D1002A08D0002908CF0028088C
:10146000CE008A11E6218A157708BC007808BD00F5
:101470007908BE007A08BF0083143F08CB003E08FD
:10148000CA003D08C9003C08C8006630CF00CE0045
:101490000630CD008030CC008A1164238A1577088D
:1014A000C0007808C1007908C2007A08C300C700EC
:1014B0004208C6004108C5004008C400C330CB0044
:1014C000F530CA002830C9007D30C8008A115B227F
:1014D0008A1583100A30CB00D730CA002330C900E8
:1014E0007B30C8007A08CF007908CE007808CD009C
:1014F0007708CC008A1164238A15C701C601C5018B
:101500007F30C4007A08CB007908CA007808C90087
:101510007708C8008A115B228A157708C40078080A
:10152000C5007908C6007A08C70083144708CB00B5
:101530004608CA004508C9004408C8003D30CF002D
:101540000A30CE005730CD007D30CC008A116423A4
:101550008A157A08BB007908BA007808B9007708BC
:10156000B8000130CB000230CC008A1103218A156B
:10157000BC013C088A115A208A15BC0AF700CA002F
:101580008A1115218A150A303C02031DB92A8930B7
:1015900084003B08C0003A08BF003908BE00380884
:1015A000BD000230C1008A1108258A152B08C00031
:1015B0002A08BF002908BE002808BD003330C40037
:1015C000C300C2007E30C1008A1125238A1503188A
:1015D000ED2A0319ED2A0030EE2A0130BE01BD00CC
:1015E0008A11C9218A157A08C0007908BF007808D5
:1015F000BE007708BD003330C400C300C2007F3096
:10160000C1008A1125238A15031CC52B83142B08BE
:10161000CB002A08CA002908C9002808C8003330AE
:10162000CF00CE00CD007F30CC008A1164238A1514
:101630007A08B7007908B6007808B5007708B400D2
:10164000CD01CC01CB018030CA003708D10036086B
:10165000D0003508CF003408CE008A11E6218A1563
:101660007708BC007808BD007908BE007A08BF0082
:10167000C7003E08C6003D08C5003C08C400CB01B9
:10168000CA012030C9008430C8008A115B228A1543
:101690007A08AF007908AE007808AD007708AC0092
:1016A0008310CD30CB00CC30CA004C30C9007A302A
:1016B000C8002F08CF002E08CE002D08CD002C0822
:1016C000CC008A1164238A157A08B3007908B20025
:1016D0007808B1007708B000C701C601C5017F30A6
:1016E000C4003308CB003208CA003108C9003008F2
:1016F000C8008A115B228A157708BC007808BD00F3
:101700007908BE007A08BF0083143F08CB003E086A
:10171000CA003D08C9003C08C8003D30CF000A306F
:10172000CE005730CD007D30CC008A1164238A155D
:101730007A08BB007908BA007808B9007708B800C1
:101740000130CB000230CC008A1103218A15BC0184
:101750003C088A115A208A15BC0AF700CA008A116F
:1017600015218A150A303C02031DA82B89308400FC
:101770003B08C0003A08BF003908BE003808BD0069
:101780000230C1008A1108258A152B08C0002A08DA
:10179000BF002908BE002808BD003330C400C300C4
:1017A000C2007E30C1008A1125238A15031CEE2B4E
:1017B0000130CB000230CC008A1103218A15BC0114
:1017C0003C088A116B208A15BC0AF700CA008A11EE
:1017D00015218A1509303C02031DE02B9A30C00008
:1017E0009930BF001930BE008030BD002B08C40006
:1017F0002A08C3002908C2002808C1008A1125232D
:101800008A15031C192C0130CB000230CC008A1140
:1018100003218A15BC013C088A116B208A15BC0A79
:10182000F700CA008A1115218A1509303C02031DF0
:061830000B2CB62863003A
:02400E00713F00
:00000001FF
;PIC16F876
