:1000000000308A00BA2C00000A108A100A118207F8
:1000100028340C34013406340A108A100A1182077D
:10002000503472347534653462342034533465345A
:100030006E3473346F34723400340A108A100A112B
:100040008207463475346E34633469346F346E34E9
:10005000203470346F346C3469346E346F346D34E2
:100060000034443084008313000803193D285230C3
:10007000F700F70B3928800B37280034580EF03979
:10008000F7000F30060577048600000006140610FE
:1000900000348610F03083168600831206150000A7
:1000A000061400000608060E0F39D80006100000DE
:1000B00006140608060E0F39D70006100030831606
:1000C00086008312580EF700F030F70577085704C2
:1000D000F8007808D700D71B4A28551C86105518F9
:1000E00086140000061100000610560ED7000F30CF
:1000F000D7055708D8003E2056080F39D700D8003A
:100100003E200034003083168600831286100611CC
:1001100006100F30C40031200130C3004308033CF7
:10012000031C9A280330D8003E200530C40031203B
:10013000C30A8E280230D8003E20C3014308033C86
:10014000031CAB2843080420C400D5014408D60092
:100150004920C30A9E288A110A12D52C8A110A1234
:10016000D62C520BB428B7284030D300B828D3017E
:1001700001305102D30753088038D400D501540808
:10018000D6004920003450080C3A0319CE28063A0C
:100190000319D828023A0319DE28E328D5010130D3
:1001A000D6004920A630F700F70BD4280000E92834
:1001B0000130D1000230D200B120E928D501103041
:1001C000D6004920E9280130D5005008D600492042
:1001D000E92800348E30F7004408F8004308F9009D
:1001E000FA01F808031DFE287908F800F901083023
:1001F000F702F808031DFE28F70106290310F81B73
:100200000529F90DF80DF703FE28F8138A110A12D3
:10021000132D500803197929D80054080319792996
:10022000D80703181A297F30D802031C792903192B
:1002300079291E298130D807031879295808F70031
:10024000F801F901FA015108DC00DC175208DB0063
:100250005308DA001830D800D9015A1C472957082A
:10026000FA07031C3929F90A031D3929F80A031969
:10027000D9175608F907031C4029F80A0319D9179A
:100280005508D200D2175208F8070318D917D90D0C
:10029000F80CF90CFA0CDC0CDB0CDA0C0310D80BA4
:1002A0002C290130F70703187929F81B5E29DC0D8A
:1002B000FA0DF90DF80DF70303197929DC1F6F29E1
:1002C000FA0A031D6F29F90A031D6F29F80A031D95
:1002D0006F29F80CF90CFA0CF70A0319792951085F
:1002E000D9005508D906D91F7729F8177D29F813A1
:1002F0007D29F701F801F901FA01003447080319D3
:10030000432AD3004B080319432AD302031C8D2927
:100310007F30D3070318432A93298130D302031C6B
:10032000432A0319432A5308F700F801F901FA0197
:10033000D2014808D100D1174908D0004A08CF009F
:100340001930D3004E08CF020318B6290130D0026D
:100350000318B629D1020318B629D2020318B62908
:10036000D20AD10AD00A4E08CF07E8294D08D00298
:100370000318D1290130D1020318D129D202031860
:10038000D129D20AD10A4D08D0074E08CF07031C45
:10039000E829D00A031DE829D10A031DE829D20A59
:1003A000E8294C088038D1020318E7290130D2022D
:1003B0000318E729D20A4C088038D1074D08D00726
:1003C000031CC529D10A031DC529D20AC5297A14DF
:1003D000D30BEB29F6290310CF0DD00DD10DD20D83
:1003E0000310FA0DF90DF80DD40DA229541CFE29A5
:1003F0000310F80CF90CFA0CD40C012AF7030319BA
:10040000432AD41B2A2A0310CF0DD00DD10DD20DB3
:100410004E08CF020318162A0130D0020318162AFC
:10042000D1020318162AD202031C392A4D08D00221
:100430000318212A0130D1020318212AD202031CF9
:10044000392A4C088038D10203182A2A0130D202F6
:10045000031C392AFA0A031D392AF90A031D392A0D
:10046000F80A031D392AF70A0319432AF80CF90C74
:10047000FA0C4808D3004C08D306D31F412AF817BA
:10048000472AF813472AF701F801F901FA018A11FE
:100490000A12372D80308318D806DD01DE0154089A
:1004A000DC005808DC06530803193A2BDB00F70080
:1004B00057080319432BDB020319DF2A031C9D2A6B
:1004C0005808E100E1175908E0005A08DF00DE0192
:1004D0000310E10CE00CDF0CDE0CDB0B672ADC1FE9
:1004E000742A5D14572B5D105B105D165630840026
:1004F00083136C2B5D12DC1B872A5B1C922AE10C98
:10050000E00CDF0CDE0CF70A0319522B922AE11BD8
:10051000952A0310DE0DDF0DE00DE10DF703031941
:10052000522B872A5D17FF2A5D135408DC00DC1F5D
:100530009B2AE1174B2BE1134B2B5708DB00F700ED
:100540005308DB025408E100E1175508E0005608A3
:10055000DF00DE010310E10CE00CDF0CDE0CDB0B36
:10056000A92ADC1FB62ADD14572BDD105B10DD161F
:100570005A30840083136C2BDD12DC1BC92A5B1CF0
:10058000D42AE10CE00CDF0CDE0CF70A0319522B25
:10059000D42AE11BD72A0310DE0DDF0DE00DE10D9B
:1005A000F7030319522BC92ADD17FF2ADD13580858
:1005B000DC00DC1FDD2AE1174B2BE1134B2B580825
:1005C000E100E1175908E0005A08DF00DC1FEC2ABF
:1005D000E1135D15572B5D11DE015B105630840071
:1005E00083136C2BDC1B152B5408DC005B1CFF2ACF
:1005F000E10CE00CDF0CDE0CF70A0319522BDE1FB6
:10060000102BDF0A031D102BE00A031D102BE10A3B
:10061000031D102BE10CE00CDF0CF70A0319522B21
:100620005D1B942ADD1BD62A342B8030E106E11FA6
:100630001D2B572B5808DC002A2B5408DC00E1083E
:10064000031D2A2BE008031D2A2BDF08031D2A2B7C
:10065000F7014B2BE11B342B0310DE0DDF0DE00DFA
:10066000E10DF70B2A2B522BDC1F382BE1174B2BFC
:10067000E1134B2B5708F7005808E1005908E00038
:100680005A08DF004B2B5308F7005408E1005508C7
:10069000E0005608DF006108F8006008F9005F0814
:1006A000FA008A2BF701F801F901FA018A2BDE0121
:1006B000DF09E009E109DE09DE0A031D652BDF0A17
:1006C000031D652BE00A0319E10A5D18732ADD1882
:1006D000B52A5D19EB2A1A2B0008DF07031C762BBD
:1006E000E00A031D762BE10A03195B14840300085A
:1006F000E007031C7E2BE10A03195B148403000846
:10070000801F803AE10703185B145D1A7A2ADD1A0C
:10071000BC2AF22A00345008B63CD000FA01510835
:10072000D400D1170310D10CD20CD30CFA0CF90C55
:10073000F80CF70CD00B922BD41FA92BF709F80952
:10074000F909FA09F70A0319F80A0319F90A03194A
:10075000FA0A8A110A12162CF701F801F901FA01B6
:10076000D801D901DA01DB015708560455045404B5
:100770000319EA2B2030DC000310D00DD10DD20D6F
:10078000D30DD80DD90DDA0DDB0D57085B02031D13
:10079000D32B56085A02031DD32B55085902031DAB
:1007A000D32B54085802031CE42B5408D8025508D4
:1007B000031C550FD9025608031C560FDA025708BE
:1007C000031C570FDB020314F70DF80DF90DFA0D9A
:1007D000DC0BBC2B58308400831300340408C800A1
:1007E0004708CA0003190D2C4608D3004508D2005B
:1007F0004408D1004308D000D701D6012030D500ED
:100800008230D40009217A08C6007908C50078082A
:10081000C4007708C300CA0BF42B4608D300450870
:10082000D2004408D1004308D0008B2B7A08C600C0
:100830007908C5007808C4007708C300C61F2D2CAE
:10084000C803C816C309C409C509C609C30A0319E0
:10085000C40A0319C50A0319C60A3B30CF009A30EF
:10086000CE00CA30CD00CC010A30CA0047080319B7
:10087000C80A4608D3004508D2004408D1004308FE
:10088000D0004F08D7004E08D6004D08D5004C08C0
:10089000D400AC230008C300840A0008C400840A02
:1008A0000008C500840A0008C600FD308407F70868
:1008B000031D6D2C470A4A0203196D2C48080319C1
:1008C0006F2C0F394A020319672C03189F2CC81B81
:1008D0009F2C481B6F2C20309B2C2030C805C81E35
:1008E0007D2CC8124708031DC8037708C8002D30A7
:1008F000D000C3204808F700C80147084A02031D7A
:100900008B2C7708C8002E30D000C3204808F70091
:100910002030C80500303030C81E9B2CC812470854
:10092000031DC8037708C8002D30D000C320480835
:10093000F700C8013030F7077708D000C3204F0810
:10094000D3004E08D2004D08D1004C08D000D7018A
:10095000D601D5010A30D400AC237A08CF0079083B
:10096000CE007808CD007708CC00CA0B392C8A114C
:100970000A129C2E840183131F30830583161F14D3
:100980009F141F159F118312A0012110A201A30122
:10099000831687010B3085008312870183161F1091
:1009A0009F101F119F1183128228AE281F179F17B7
:1009B00083169F1783121F140030F8001F08C739D1
:1009C00078049F00831681138312C30143080C200F
:1009D000C30AF700D000C3200C304302031DE62CED
:1009E0000C30D000C3200130D100D200B120C301AF
:1009F00043081D20C30AF700D000C3200F30430274
:100A0000031DF82C032D042D00001F151F19062DA2
:100A100083161E088312A5001E08A6002608C4001F
:100A20002508C300EA28D301D2012030D10081304B
:100A3000D0007A08D7007908D6007808D500770862
:100A4000D40009217708C3007808C4007908C500DC
:100A50007A08C600CA007908C9007808C800770873
:100A6000C700CE01CD01CC018930CB007E297A08A8
:100A7000B2007908B1007808B0007708AF003208FA
:100A8000D3003108D2003008D1002F08D00032083E
:100A9000D7003108D6003008D5002F08D40009212E
:100AA0007A08B6007908B5007808B4007708B30072
:100AB0003208D3003108D2003008D1002F08D0000E
:100AC0003208D7003108D6003008D5002F08D400EE
:100AD00009217708C3007808C4007908C5007A089E
:100AE000C600D3007908D2007808D1007708D0007A
:100AF0003208D7003108D6003008D5002F08D400BE
:100B000009217A08BA007908B9007808B80077088E
:100B1000B7003208D3003108D2003008D1002F08C6
:100B2000D0003208D7003108D6003008D5002F0891
:100B3000D40009217708C3007808C4007908C500EB
:100B40007A08C600D3007908D2007808D100770867
:100B5000D0003208D7003108D6003008D5002F0861
:100B6000D40009217708C7007808C8007908C900AF
:100B70007A08CA00D3007908D2007808D100770833
:100B8000D0003208D7003108D6003008D5002F0831
:100B9000D40009217A08BE007908BD007808BC009D
:100BA0007708BB00D301D2010630D1008330D000DA
:100BB0003E08D7003D08D6003C08D5003B08D400CD
:100BC00009217708C3007808C4007908C5007A08AD
:100BD000C6001F30D3008530D2006E30D100853082
:100BE000D0003A08D7003908D6003808D5003708B1
:100BF000D400092183144608D6004508D5004408CE
:100C0000D4004308D3007A08DA007908D9007808BC
:100C1000D8007708D7004A227708C7007808C800AC
:100C20007908C9007A08CA009A30D300D930D200B6
:100C30001B30D1008730D0003608D7003508D600E9
:100C40003408D5003308D400092183104A08D6009F
:100C50004908D5004808D4004708D3007A08DA00CC
:100C60007908D9007808D8007708D7004A22770891
:100C7000CB007808CC007908CD007A08CE00E130AE
:100C8000D300DA30D2003630D1008730D0003208BD
:100C9000D7003108D6003008D5002F08D40009212C
:100CA00083144E08D6004D08D5004C08D4004B08DC
:100CB000D3007A08DA007908D9007808D8007708D4
:100CC000D7004A227708CF007808D0007908D100F1
:100CD0007A08D20083107A08D6007908D5007808FF
:100CE000D4007708D300AE30DA000730D9003830AE
:100CF000D8008630D7004A227A08C2007908C1009D
:100D00007808C0007708BF000130D1000230D2005F
:100D1000B1204C30D000C3203D30D000C320C930BA
:100D200084004208C6004108C5004008C4003F08CE
:0C0D3000C3000230C700EE2BF32C630060
:02400E00713F00
:00000001FF
;PIC16F876
