:1000000000308A000D2900000A108A100A118207A8
:1000100028340C34013406340A108A100A1182077D
:100020004D346F3464342034503472347534653454
:100030002E344D346F3474346F34723400340A10FB
:100040008A100A1182070C344D346F3474342E3404
:10005000203449347A34713400340A108A100A1179
:1000600082070C344D346F3474342E3420344434CD
:100070006534723400340A108A100A1182070C3475
:100080004134643465346C3461346E3474346534B2
:1000900000340A108A100A1182070C344134743477
:1000A00072346134733400342530840083130008C3
:1000B000031960285230F700F70B5C28800B5A2890
:1000C00000342D0EF039F7000F3006057704860056
:1000D00000000614061000348610F03083168600E7
:1000E000831206150000061400000608060E0F39DC
:1000F000AD000610000006140608060E0F39AC000D
:10010000061000308316860083122D0EF700F030A3
:10011000F70577082C04F8007808AC00AC1B6D28B4
:100120002A1C86102A1886140000061100000610EA
:100130002B0EAC000F30AC052C08AD0061202B0855
:100140000F39AC00AD00612000340030831686000A
:1001500083128610061106100F30A50054200130BE
:10016000A4002408033C031CBD280330AD0061201B
:100170000530A5005420A40AB1280230AD0061204A
:10018000A4012408033C031CCE2824080420A50055
:10019000AA012508AB006C20A40AC1288A110A1202
:1001A00022298A110A122329270BD728DA2840305E
:1001B000A800DB28A80101302602A80728088038FB
:1001C000A900AA012908AB006C20003425080C3ACC
:1001D0000319F128063A0319FB28023A03190129E9
:1001E0000629AA010130AB006C20A630F700F70BFE
:1001F000F72800000C290130A6000230A700D42007
:100200000C29AA011030AB006C200C290130AA0087
:100210002508AB006C200C290034840183131F30A7
:10022000830583161F149F141F159F118312A001AD
:100230002110A201A301831687010B3085008312D0
:100240008701A528D12883168113831207118710EF
:100250000130A600A700D420A40124080C20A40A81
:10026000F700A500E6200E302402031D2D29871279
:100270000511071005120830A400FA30A50054201B
:10028000A40B3D290130A6000230A700D420A40110
:1002900024081F20A40AF700A500E6200930240244
:1002A000031D482987160511071005121030A400F8
:1002B000FA30A5005420A40B58290130A6000230C2
:1002C000A700D420A40124082D20A40AF700A5002B
:1002D000E62009302402031D632987120511071443
:1002E00005121030A400FA30A5005420A40B732985
:1002F0000130A6000230A700D420A40124083B202E
:10030000A40AF700A500E62009302402031D7E2977
:1003100087160511071405129B011030A400FA304E
:10032000A5005420A40B8F290130A6000230A7009D
:10033000D420A40124084920A40AF700A500E6203F
:1003400006302402031D9A29871205150710051689
:100350001030A400FA30A5005420A40BAA292629A5
:02036000630038
:02400E00713F00
:00000001FF
;PIC16F876
