:1000000000308A00D02900000A108A100A118207E5
:1000100028340C34013406340A108A100A1182077D
:10002000313432343334343435343634373438348C
:1000300039342A34303423340A108A100A118207E2
:100040004334613472343D34253431346334003404
:100050000A108A100A1182074E3475346D343D340B
:1000600025343334753400342A3084008313000877
:10007000031948280130F800F701F70B3D28F80B69
:100080003C284A30F700F70B43284628800B3A28D3
:100090000034310EF039F7000F3006057704860082
:1000A000000006145328061000348610F030831622
:1000B0008600831206150000061400000608060ECE
:1000C0000F39B10006100000061400000608060EE5
:1000D0000F39B00006100030831686008312310EEF
:1000E000F700F030F70577083004F8007808B00022
:1000F000B01B56282E1C86102E18861400000611E0
:10010000000006102F0EB0000F30B0053008B1000F
:1001100049202F080F39B000B100492000340030C9
:100120008316860083128610061106100F30AA006F
:1001300034200130A6002608033C031CA728033006
:10014000B10049200530AA003420A60A9B280230BD
:10015000B1004920A6012608033C031CB828260844
:100160000420A700AE012708AF005520A60AAB283F
:100170008A110A12DF298A110A12E029F701F8010F
:10018000280803102918F707F70CF80CA918F70727
:10019000F70CF80C2919F707F70CF80CA919F70751
:1001A000F70CF80C291AF707F70CF80CA91AF7073F
:1001B000F70CF80C291BF707F70CF80CA91BF7072D
:1001C000F70CF80C8A110A123729A601A00A200898
:1001D000213C0318442923080319F528013A03197F
:1001E000FB28033A031901290729DE30831686000C
:1001F000831286000729BE3083168600831286008C
:1002000007297E3083168600831286000729211C69
:10021000132906081E391E3C031D1229211022082D
:10022000A600A201432906081E391E3C03193E29D7
:1002300006080239031D1E29A701322906080439C0
:10024000031D25290130A700322906080839031D9E
:100250002C290230A700322906081039031D322943
:100260000330A7002708A8000330A900BE282308F0
:1002700078070C20F800A20021144329A30A2308C0
:10028000033C0319A301A001FE30831686008312EC
:100290002608F8008A110A12E4292B0B5029532949
:1002A0004030AC005429AC0101302A02AC072C08C4
:1002B0008038AD00AE012D08AF005520003429086C
:1002C0000C3A03196A29063A03197229023A0319EA
:1002D00078297D29AE010130AF0055200230AA00F7
:1002E000342083290130AA000230AB004D2183293C
:1002F000AE011030AF00552083290130AE0029082F
:10030000AF005520832900342A08F8012902031878
:100310008C292908F7009829F7010830AB00A90DAE
:10032000F70D2A0877020318F700F80DAB0B8F2999
:10033000003478082708A9006430AA0084217708CF
:10034000A70078083030031DAC29A81CB329A819D0
:10035000B329281A2030AF29A81128122814F80729
:100360007808A9005F212708A9000A30AA00842183
:100370007708A70078083030031DC429A819C829B8
:10038000281CC829281A2030F8077808A9005F21FE
:100390003030A7072708A9005F218A110A12132A03
:1003A000840183131F30830583161F149F141F15A8
:1003B0009F118312A0012110A201A3018F28BB2845
:1003C000831681138312E5287808A40030302402B4
:1003D000A500A4080319E3290130AA00AB004D21B0
:1003E000A60126081C20A60AF700A9005F210430F8
:1003F0002602031DF1292408A9005F210830AA0064
:100400000130AB004D21A60126082820A60AF700DE
:10041000A9005F2104302602031D042A2508A70035
:0A0420001330A8009929E3296300B6
:02400E00713F00
:00000001FF
;PIC16F876
